S00F00004573636C61766F2E7372656348
S11300000C945A000C946C000C946C000C946C00CE
S11300100C946C000C94E5000C946C000C946C0033
S11300200C946C000C946C000C946C000C946C009C
S11300300C946C000C946C000C946C000C946C008C
S11300400C946C000C946C000C946C000C946C007C
S11300500C946C000C946C000C946C000C946C006C
S11300600C9478000C946C000C946C000C946C0050
S11300700C946C000C946C000C946C000C946C004C
S11300800C946C000C946C000C946C000C946C003C
S11300900C946C000C946C000C946C000C946C002C
S11300A00C946C000C946C000C946C000C946C001C
S11300B00C946C0011241FBECFEFD8E0DEBFCDBF7F
S11300C021E0A0E0B1E001C01D92A230B207E1F747
S11300D00E94D6000C942B010C94000097B19F7CD5
S11300E097B9880F8093BA0085E48093BC00089583
S11300F01F920F920FB60F9211248F93EF93FF93D9
S11301008091B9008C7F803899F028F4803651F0C2
S1130110803741F01FC0883AA9F0883B99F08039B4
S1130120C9F406C0ECEBF0E080818068808317C0DE
S11301308091BB0080930101ECEBF0E0808180684A
S113014080830DC0809100018093BB0085EC809377
S1130150BC0005C0ECEBF0E0808180698083FF91F6
S1130160EF918F910F900FBE0F901F90189587B14C
S11301708F6087B918B88AB180678AB91BB884B10F
S1130180806284B90895F8948AB1837F8AB98BB167
S11301908C608BB9E8E6F0E0808184608083EDE6D2
S11301A0F0E080818C608083789408950E94B70089
S11301B00E94C30080E30E946E0078948091010144
S11301C08235E1F710920101F9CF1F920F920FB619
S11301D00F9211242F938F939F934A9917C0809164
S11301E000018F5F8F70809300012FEF84E39CE008
S11301F0215080409040E1F700C0000088B1909108
S113020000019F70807F892B88B91DC04B991BC04A
S113021080910001811104C08FE08093000103C02C
S11302208150809300012FEF84E39CE021508040B3
S11302309040E1F700C0000088B1909100019F70E8
S1130240807F892B88B99F918F912F910F900FBE3A
S10D02500F901F901895F894FFCF4B
S9030000FC
