S00F00004D61657374726F2E737265633A
S11300000C945A000C9477000C9477000C947700AD
S11300100C9477000C9477000C9477000C94770080
S11300200C9477000C9477000C9477000C94770070
S11300300C9477000C9477000C9477000C94770060
S11300400C9477000C9477000C9477000C94770050
S11300500C9477000C9477000C9477000C94770040
S11300600C9477000C9477000C9477000C94770030
S11300700C9477000C9477000C9477000C94770020
S11300800C9477000C9477000C9477000C94770010
S11300900C9477000C9477000C9477000C94770000
S11300A00C9477000C9477000C9477000C947700F0
S11300B00C94770011241FBECFEFD8E0DEBFCDBF74
S11300C011E0A0E0B1E0E4EEF5E002C005900D928D
S11300D0AA32B107D9F721E0AAE2B1E001C01D922A
S11300E0A033B207E1F70E9401020C94F0020C94D1
S11300F000000F931F93CF938B019C01C42F87B1F2
S11301008F7C87B9443079F018F4413031F023C042
S1130110403191F04034C9F01EC0E9EBF0E0808139
S11301208C7F80831EC0E9EBF0E080818D7F80832B
S113013080818160808315C0E9EBF0E080818E7F4F
S113014080838081826080830CC0E9EBF0E0808151
S11301508360808306C0E9EBF0E080818C7F80833C
S1130160C1E060E074E284EF90E0A90198010E948C
S1130170CE02CA01B90160517109810991094C2F5C
S113018050E09A01220F331F032E000C440B550B31
S11301900E94CE022093B800ECEBF0E080818460F2
S11301A08083CF911F910F91089584EA8093BC00BE
S11301B08091BC008823E4F7089584E98093BC000F
S11301C008958093BB0084E88093BC008091BC00B8
S11301D08823E4F78091B900887F883131F0883230
S11301E031F0803429F481E0089581E0089581E0BC
S11301F0089595B19B7F95B99BB1282F30E0220FCC
S1130200331F220F331F9370292B2BB995B19C7F79
S11302108295869586958370892B85B985B188608A
S113022085B98FE99FE00197F1F700C0000085B11F
S1130230877F85B98FE99FE00197F1F700C000003F
S113024008958AB18C6F8AB984B18F6084B98FE5BF
S11302509AEE0197F1F700C0000088E30E94F900CC
S11302608FE19EE40197F1F700C000008CE00E944A
S1130270F9008FE39FE10197F1F700C0000086E0E9
S11302800E94F9008FE39FE10197F1F700C000009D
S113029081E00E94F9008FE39FE10197F1F700C02C
S11302A00000089595B1946095B99BB1282F30E072
S11302B0220F331F220F331F9370292B2BB995B1B3
S11302C09C7F8295869586958370892B846085B9F9
S11302D085B1886085B98FE99FE00197F1F700C087
S11302E0000085B1877F85B98FE99FE00197F1F719
S11302F000C0000008950F931F93CF93DF938C01E8
S1130300C0E0D0E003C00E9452012196F801EC0F36
S1130310FD1F80818111F7CFDF91CF911F910F9144
S11303200895611102C0805805C0613011F48054F1
S113033001C080E00E94F900089581E00E94F90064
S11303408FE39FE10197F1F700C000000895CF9378
S1130350DF9300D000D0CDB7DEB781111EC080E39B
S1130360FB01808381E02CC0E1E0F0E0EC0FFD1F95
S1130370E90FF11D2DEC829F212D11242695269540
S11303802695422F440F342F330F330F340F831B22
S1130390805D8083822F9F5F01C090E08111E4CF54
S11303A00DC0DB01A80FB11D9150E1E0F0E0EC0FAE
S11303B0FD1FE90FF11D20812C938F5F9111F1CF67
S11303C0FB01E80FF11D10820F900F900F900F901A
S11303D0DF91CF910895CF93DF9300D000D0CDB7B4
S11303E0DEB7BE016F5F7F4F0E94A701CE01019669
S11303F00E947B010F900F900F900F90DF91CF918F
S113040008950E94210141E060EA76E881E090E0ED
S11304100E9479000E949D0160E080E00E949101A9
S113042080E091E00E947B0161E080E00E94910104
S11304308CE091E00E947B012FEF87EA91E6215046
S113044080409040E1F700C000000E949D0160E000
S113045080E00E94910189E191E00E947B0161E0CA
S113046084E00E94910180912B010E94EB0160E0E5
S11304708BE00E94910184E291E00E947B0161E0A3
S11304808CE00E94910180912A010E94EB012FEFE0
S11304908BE49DE1215080409040E1F700C00000D2
S11304A00E94D50080E680932D010E94E100809394
S11304B02E01813019F00E94DD0005C082E50E9402
S11304C0E1000E94DD008FE39CE90197F1F700C091
S11304D000000E94D50081E680932D010E94E10076
S11304E080932E01813019F00E94DD000DC084E854
S11304F08093BC008091BC008823E4F78091BB000A
S113050080932B010E94DD008FE39CE90197F1F7B2
S113051000C000000E94D50080E880932F010E9453
S1130520E10080932E01813019F00E94DD0005C0A6
S11305308CE40E94E1000E94DD008FE39CE90197B6
S1130540F1F700C000000E94D50081E880932F01DC
S11305500E94E10080932E01813019F00E94DD0099
S11305600DC084E88093BC008091BC008823E4F72C
S11305708091BB0080932A010E94DD008FE39CE9F7
S11305800197F1F700C000009FEF21EE84E0915045
S113059020408040E1F700C0000057CFA1E21A2EAE
S11305A0AA1BBB1BFD010DC0AA1FBB1FEE1FFF1F13
S11305B0A217B307E407F50720F0A21BB30BE40B63
S11305C0F50B661F771F881F991F1A9469F76095AA
S11305D07095809590959B01AC01BD01CF01089564
S10705E0F894FFCFB9
S11305E453697374656D612049324300496E6963CC
S11305F469616E646F2E2E2E00436F6E7461646F96
S10D0604723A20004144433A2000FA
S9030000FC
