:100000000C9434000C9446000C9446000C9446006A
:100010000C9446000C9446000C9446000C94460048
:100020000C9446000C9446000C9446000C94460038
:100030000C9446000C9446000C9446000C94460028
:100040000C9446000C9446000C9446000C94460018
:100050000C9446000C9446000C9446000C94460008
:100060000C9499000C94460011241FBECFEFD8E0E9
:10007000DEBFCDBF21E0A0E0B1E001C01D92A33002
:10008000B207E1F70E9481000C94D8000C940000A4
:10009000ECE7F0E080818064808380818F778083CB
:1000A00080818F7D8083EAE7F0E0808181608083BA
:1000B0008081826080838081846080838081806889
:1000C000808308958770ECE7F0E09081907F892B22
:1000D0008083EAE7F0E080818064808380917A0009
:1000E00086FDFCCF8091780090917900089597B1BA
:1000F0009F7C97B9880F8093BA0085E48093BC00F9
:1001000008950E94480080E40E947700789486E079
:100110000E94620096958795969587959093010128
:1001200080930001809102018C3489F710920201C2
:10013000EECF1F920F920FB60F9211248F93EF9371
:10014000FF938091B9008C7F803899F028F4803635
:1001500051F0803741F01FC0883AA9F0883B99F0F0
:100160008039C9F406C0ECEBF0E0808180688083C0
:1001700017C08091BB0080930201ECEBF0E080811E
:10018000806880830DC0809100018093BB0085EC66
:100190008093BC0005C0ECEBF0E080818069808337
:1001A000FF91EF918F910F900FBE0F901F901895B8
:0401B000F894FFCFF1
:00000001FF
